:020000040000FA
:100000000C945E000C9486000C9486000C94860080
:100010000C9486000C9486000C9486000C94860048
:100020000C9486000C9486000C9486000C94860038
:100030000C9486000C9486000C9486000C94860028
:100040000C94AF030C9486000C941F040C94F903D9
:100050000C9486000C9486000C9486000C94860008
:100060000C9486000C948600000000080002010039
:100070000003040700000000000000000000000072
:10008000250028002B0000000000240027002A0083
:10009000040404040404040402020202020203032E
:1000A0000303030301020408102040800102040836
:1000B00010200102040810205104430711241FBE20
:1000C000CFEFD8E0DEBFCDBF22E0A2ECB1E001C0AF
:1000D0001D92A938B207E1F711E0A0E0B1E0E8E332
:1000E000F4E102C005900D92A23CB107D9F710E0EF
:1000F000CDE5D0E004C02197FE010E941708CC3561
:10010000D107C9F70E94BC040C940F0A0C9400009C
:1001100090E0FC01EC55FF4F249180579F4FFC016C
:100120008491882399F090E0880F991FFC01EA5789
:10013000FF4FA591B491FC01E458FF4F8591949134
:100140008FB7F894EC91E22BEC938FBF089508954C
:10015000AF92BF92CF92DF92EF92FF920F931F93D5
:10016000CF93DF936C017B018B01040F151FEB0113
:100170005E01AE18BF08C017D10759F06991D601CA
:10018000ED91FC910190F081E02DC6010995892B3C
:1001900079F7C501DF91CF911F910F91FF90EF90FB
:1001A000DF90CF90BF90AF900895CF93DF93FC0185
:1001B00044815581608171818FEC91E00E94A8009B
:1001C000EC0142E050E062E271E08FEC91E00E94CD
:1001D000A8008C0F9D1FDF91CF910895FC01538DD6
:1001E000448D252F30E0842F90E0821B930B541711
:1001F00010F0CF96089501970895FC01918D828D9E
:10020000981761F0A28DAE0FBF2FB11D5D968C9136
:10021000928D9F5F9F73928F90E008958FEF9FEF75
:1002200008952FB7F8948091CB019091CC01A091C3
:10023000CD01B091CE012FBF8093D7019093D8010B
:10024000A093D901B093DA018FEC91E00E94FD00F8
:1002500097FF26C02FB7F8948091CB019091CC01E5
:10026000A091CD01B091CE012FBF4091D701509107
:10027000D8016091D9017091DA01841B950BA60B0E
:10028000B70B4091D3015091D4016091D501709189
:10029000D60184179507A607B707B0F28FEF9FEF37
:1002A0000895FC01918D828D981731F0828DE80FB1
:1002B000F11D858D90E008958FEF9FEF0895FC016B
:1002C000918D228D892F90E0805C9F4F821B910938
:1002D0008F73992708958FEC91E00E945F0121E0D0
:1002E000892B09F420E0822F089580E090E0892B8B
:1002F00029F00E946B0181110C9400000895FC010B
:10030000A48DA80FB92FB11DA35ABF4F2C91848D76
:1003100090E001968F739927848FA689B7892C93D3
:10032000A089B1898C91837080648C93938D848D26
:10033000981306C00288F389E02D80818F7D808329
:100340000895EF92FF920F931F93CF93DF93EC01E9
:1003500081E0888F9B8D8C8D98131AC0E889F9896C
:10036000808185FF15C09FB7F894EE89FF8960836F
:10037000E889F98980818370806480839FBF81E0F0
:1003800090E0DF91CF911F910F91FF90EF90089532
:10039000F62E0B8D10E00F5F1F4F0F731127E02E0D
:1003A0008C8D8E110CC00FB607FCFACFE889F98945
:1003B000808185FFF5CFCE010E947F01F1CFEB8DCB
:1003C000EC0FFD2FF11DE35AFF4FF0829FB7F89419
:1003D0000B8FEA89FB8980818062CFCFCF93DF9337
:1003E000EC01888D8823B9F0AA89BB89E889F9894D
:1003F0008C9185FD03C0808186FD0DC00FB607FC82
:10040000F7CF8C9185FFF2CF808185FFEDCFCE01B4
:100410000E947F01E9CFDF91CF91089590E0FC0128
:10042000E859FF4F2491FC01EC55FF4F3491FC013A
:10043000E057FF4FE491EE23C9F0222339F0233037
:1004400001F1A8F4213019F1223029F1F0E0EE0F8A
:10045000FF1FE458FF4FA591B4918FB7F894EC912A
:10046000611126C030953E233C938FBF08952730FD
:10047000A9F02830C9F0243049F7809180008F7DA1
:1004800003C0809180008F7780938000DFCF84B598
:100490008F7784BDDBCF84B58F7DFBCF8091B0009B
:1004A0008F778093B000D2CF8091B0008F7DF9CF4D
:1004B0003E2BDACFCF92DF92EF92FF920F931F93F2
:1004C000CF93DF93CAE7D2E082E7C82E82E0D82E2E
:1004D0000A85F0907A02E0907B0218E0602F661F98
:1004E0006627661F8E2D0E940E02000F61E08F2D81
:1004F0000E940E0260E08F2D0E940E02115071F7D3
:100500002197CC16DD0621F761E080917C020E94E4
:100510000E0260E080917C02DF91CF911F910F91DC
:10052000FF90EF90DF90CF900C940E02CF93DF936B
:10053000EC0188819981009711F00E94B908198215
:1005400018821D821C821B821A82DF91CF9108952E
:10055000FC0180819181009711F00C94B9080895F5
:100560000F931F93CF93DF93EC01888199810097BC
:1005700059F02A813B812617370730F081E0DF915F
:10058000CF911F910F9108958B016F5F7F4F0E9454
:100590004209009759F0998388831B830A832C8131
:1005A0003D81232B59F7FC011082E8CF80E0E7CF93
:1005B000EF92FF920F931F93CF93DF936115710515
:1005C00041F480E0DF91CF911F910F91FF90EF9068
:1005D000089541155105B1F07B01EC010C811D819D
:1005E000040F151FB8010E94B002882351F328811F
:1005F00039818C819D81B701820F931F0E94080A67
:100600001D830C8381E0DECFCF93DF93EC01FB01F0
:1006100001900020E9F73197AF01461B570B0E946C
:10062000D802811103C0CE010E949602CE01DF9153
:10063000CF910895CF93DF93EC01FB014481558165
:10064000608171810E94D802811103C0CE010E9495
:100650009602CE01DF91CF910895EF92FF920F9312
:100660001F93CF93DF93EC017B018A01BA010E94B3
:10067000B00281110BC0CE010E949602CE01DF9123
:10068000CF911F910F91FF90EF9008951D830C83E0
:10069000B701888199810E94080AF0CFFB0101907F
:1006A0000020E9F73197AF01461B570B0C942D033F
:1006B0000F931F93CF93DF93CDB7DEB762970FB63B
:1006C000F894DEBF0FBECDBF8C01CB01F8011182C3
:1006D000108213821282158214824AE0BE016F5F7B
:1006E0007F4F0E946E07BE016F5F7F4FC8010E945F
:1006F0004E0362960FB6F894DEBF0FBECDBFDF91FA
:10070000CF911F910F910895FB01DC0111961C926E
:100710001E9213961C921E92129715961C921E9270
:1007200014978617970749F06081718161157105EB
:1007300021F0448155810C942D030895FC01118210
:1007400010821382128215821482FB010190002014
:10075000E9F73197AF01461B570B0C942D031F92FD
:100760000F920FB60F9211242F933F938F939F9365
:10077000AF93BF938091CB019091CC01A091CD011B
:10078000B091CE013091CA0123E0230F2D3758F5E7
:100790000196A11DB11D2093CA018093CB019093B6
:1007A000CC01A093CD01B093CE018091C601909170
:1007B000C701A091C801B091C9010196A11DB11D49
:1007C0008093C6019093C701A093C801B093C9015B
:1007D000BF91AF919F918F913F912F910F900FBE3D
:1007E0000F901F90189526E8230F0296A11DB11DAA
:1007F000D2CF1F920F920FB60F9211242F933F93D7
:100800004F935F936F937F938F939F93AF93BF9318
:10081000EF93FF938FEC91E00E947F01FF91EF91A6
:10082000BF91AF919F918F917F916F915F914F9108
:100830003F912F910F900FBE0F901F9018951F9210
:100840000F920FB60F9211242F938F939F93EF93D4
:10085000FF93E091DF01F091E0018081E091E501FB
:10086000F091E60182FD1BC090818091E8018F5FCD
:100870008F732091E901821741F0E091E801F0E0E7
:10088000E153FE4F958F8093E801FF91EF919F9187
:100890008F912F910F900FBE0F901F901895808110
:1008A000F4CFEFECF1E01382128288EE93E0A0E047
:1008B000B0E084839583A683B7838AE091E0918337
:1008C000808385EC90E09587848784EC90E097871F
:1008D000868780EC90E0918B808B81EC90E0938B0D
:1008E000828B82EC90E0958B848B86EC90E0978BEA
:1008F000868B118E128E138E148EEAE7F2E083E05F
:10090000808382E0818384E0828383E00E94880088
:1009100082E00E94880084E00E94880060E083E01A
:100920000E940E0260E082E00E940E0260E084E01D
:100930000E940E02EDE7F2E088E0DF011D928A9549
:10094000E9F70E945A0264E271E084E792E00E94B3
:100950009E03ECE6F2E080EC808389EF818384EAF9
:10096000828380EB838389E9848382E9858383E8BA
:10097000868388EF87830895CF93DF93CDB7DEB763
:1009800068970FB6F894DEBF0FBECDBF789484B5DC
:10099000826084BD84B5816084BD85B5826085BD7B
:1009A00085B5816085BD80916E00816080936E0009
:1009B00010928100809181008260809381008091FB
:1009C00081008160809381008091800081608093AC
:1009D00080008091B10084608093B1008091B0006C
:1009E00081608093B00080917A00846080937A0067
:1009F00080917A00826080937A0080917A00816091
:100A000080937A0080917A00806880937A001092B7
:100A1000C100E091DF01F091E00182E08083E0918C
:100A2000DB01F091DC011082E091DD01F091DE014B
:100A300080E180831092E701E091E301F091E4010D
:100A400086E08083E091E101F091E20180818061A4
:100A50008083E091E101F091E201808188608083F0
:100A6000E091E101F091E201808180688083E09172
:100A7000E101F091E20180818F7D808388E0ECE6E6
:100A8000F2E0ADE7B2E001900D928A95E1F70E94A5
:100A90005A0292EC492E91E0592E2AE0822E912C96
:100AA0008FEC91E00E945F01181619060CF0F2C05D
:100AB00064E271E0CE0101960E949E030E94110142
:100AC00097FD0CC08F83188641E050E0BE01695F3E
:100AD0007F4FCE0101960E94D802F0CF8091740220
:100AE00090917502009709F465C069817A8161155A
:100AF000710509F45DC040917602509177022D8115
:100B00003E814217530708F453C00E94080A8D81A2
:100B10009E8190937902809378021E821D82CE017D
:100B200001960E94A802409178025091790260914A
:100B30007402709175028FEC91E00E94A80064E746
:100B400072E0CE0101960E948403CD80DE8081E0B8
:100B5000C81AD10810E000E0F12CE12CC016D10633
:100B60000CF441C08D819E8108171907D0F5898149
:100B70009A810097B1F1800F911FFC0160818FEC89
:100B800091E00E94A1018D819E810817190768F4E8
:100B900089819A81009749F0800F911FFC01808123
:100BA0008B3319F4FFEFEF1AFF0A0F5F1F4FD6CFF9
:100BB0000E94B90889819A8190937502809374028A
:100BC0008B819C8190937702809376028D819E81A8
:100BD00090937902809378021A8219821C821B8278
:100BE0009CCF60E0CCCFCE0101960E94A80282EC9F
:100BF000682E81E0782E10E000E083E0E816F10432
:100C000009F455C01E861D86188A1F861A8A198AFD
:100C10008BE389831A82BE016F5F7F4FCE010D96F1
:100C20000E944E03B701CE0107960E94580365E269
:100C300071E0CE0101960E949E03BE01695F7F4F65
:100C4000CE0101960E941A0365E471E00E9404033C
:100C5000BE01635F7F4F0E941A036DE571E00E9441
:100C60000403BC01CE0143960E948403CE01439647
:100C70000E94D500CE0143960E94A802CE010196A3
:100C80000E94A802CE0107960E94A802CE010D96EE
:100C90000E94A80280E090E0892B09F401CF0E9415
:100CA0006B01882309F4F5CE0E940000F2CE64E7C0
:100CB00072E0CE0101960E948403AD81BE81BD0128
:100CC00061507109E980FA802FEF3FEFB12CA12C20
:100CD00090E080E050E040E06817790724F10417C5
:100CE00015072CF1FC0131961F018A179B0758F458
:100CF000E114F10441F06701C80ED91EF601D0805D
:100D0000FBE3DF1619F06817790759F44F5F5F4F5F
:100D10005901EFEFAE1ABE0A91016817790709F081
:100D20009C01C101D9CF041715070CF054C07901FB
:100D30002A153B0510F07501590164E271E0CE01FE
:100D40000D960E949E03CD80DE80EC14FD04D8F445
:100D5000AC14BD0408F46501E981FA81EC0DFD1DB8
:100D6000B080108269817A816E0D7F1DCE010D9653
:100D70006115710569F10E944E0389819A81C80E3F
:100D8000D91EF601B082CE0101960E94A8028D857F
:100D90009E85009739F10E9447076436710530F14E
:100DA000CE0107960E9458036CE771E0CE010196D0
:100DB0000E949E03BE01695F7F4FCE0101960E9493
:100DC0001A036BE871E00E9404030E94D50056CF1D
:100DD0000E949602D2CF64E271E0CE010D960E948D
:100DE0009E03D1CF60E070E0CB01D7CFF3016193D8
:100DF0003F01CE010D960E94A8020F5F1F4F0430E5
:100E0000110509F054CF06EC11E0F80182918F0131
:100E100090E0209170022093720220916E02209344
:100E2000700220916C0220936E0220917102209337
:100E3000730220916F022093710220916D02209322
:100E40006F02B4010E94EF07FC01E85EFE4F808153
:100E500080936D02CB01B4010E94EF07FC01E85EB4
:100E6000FE4F808180936C0288E0ECE6F2E0ADE713
:100E7000B2E001900D928A95E1F70E945A02401665
:100E8000510619F607CF84E792E00C94A8021F934D
:100E9000FC0199278827BC01E89411911032E9F3ED
:100EA000193010F01E30C8F31B3251F01D3249F4D6
:100EB000689406C00E947907610F711D811D911D04
:100EC000119110531A30B0F33EF4909580957095BF
:100ED00061957F4F8F4F9F4F1F910895BB274A30D9
:100EE00031F4992322F4BDE2909581959F4F0C94A3
:100EF0008F07592F482F372F262F660F771F881FF0
:100F0000991F660F771F881F991F620F731F841F19
:100F1000951F660F771F881F991F0895BB27FB0138
:100F20005527AA27880F991FAA1FA41710F0A41BE2
:100F300083955051B9F7A05DAA3308F0A95DA1933C
:100F4000009779F7B111B1931192CB010C94A807D6
:100F5000DC01FC01672F71917723E1F7329704C020
:100F60007C916D9370836291AE17BF07C8F30895AB
:100F70002F923F924F925F926F927F928F929F92A9
:100F8000AF92BF92CF92DF92EF92FF920F931F9397
:100F9000CF93DF93CDB7DEB7CA1BDB0B0FB6F89448
:100FA000DEBF0FBECDBF09942A88398848885F8488
:100FB0006E847D848C849B84AA84B984C884DF80F9
:100FC000EE80FD800C811B81AA81B981CE0FD11DDD
:100FD0000FB6F894DEBF0FBECDBFED01089597FBAD
:100FE000072E16F4009407D077FD09D00E9403085D
:100FF00007FC05D03EF4909581959F4F089570951C
:1010000061957F4F0895AA1BBB1B51E107C0AA1F22
:10101000BB1FA617B70710F0A61BB70B881F991F99
:101020005A95A9F780959095BC01CD010895EE0FD2
:10103000FF1F0590F491E02D09940F931F93CF9318
:10104000DF938230910510F482E090E0E091870216
:10105000F091880230E020E0B0E0A0E0309799F411
:101060002115310509F44AC0281B390B24303105FC
:10107000D8F58A819B816115710589F1FB01938304
:101080008283FE0111C04081518102811381481782
:101090005907E0F04817590799F4109761F0129634
:1010A0000C93129713961C933296CF01DF91CF9138
:1010B0001F910F9108950093870210938802F4CF37
:1010C0002115310551F04217530738F0A901DB0112
:1010D0009A01BD01DF01F801C1CFEF01F9CF909373
:1010E000880280938702CDCFFE01E20FF31F819328
:1010F00091932250310939832883D7CF20918502DB
:1011000030918602232B41F420910201309103019A
:1011100030938602209385022091000130910101D5
:101120002115310541F42DB73EB74091040150918E
:101130000501241B350BE0918502F0918602E21730
:10114000F307A0F42E1B3F0B2817390778F0AC01EA
:101150004E5F5F4F2417350748F04E0F5F1F5093C7
:10116000860240938502819391939FCFF0E0E0E067
:101170009CCFCF93DF930097E9F0FC013297138265
:101180001282A0918702B0918802ED0130E020E048
:101190001097A1F420813181820F931F2091850245
:1011A000309186022817390709F061C0F093860252
:1011B000E0938502DF91CF910895EA01CE17DF0712
:1011C000E8F54A815B819E0141155105B1F7E901BE
:1011D000FB83EA8349915991C40FD51FEC17FD0792
:1011E00061F4808191810296840F951FE9019983B2
:1011F0008883828193819B838A83F0E0E0E012966A
:101200008D919C9113970097B9F52D913C91119771
:10121000CD010296820F931F2091850230918602A4
:101220002817390739F6309751F510928802109235
:101230008702B0938602A0938502BCCFD383C2837A
:1012400040815181840F951FC817D90761F44E5F03
:101250005F4F88819981480F591F518340838A814C
:101260009B81938382832115310509F0B0CFF093E0
:101270008802E09387029ECFFD01DC01C0CF13827C
:101280001282D7CFB0E0A0E0E8E4F9E00C94BA070E
:101290008C01009751F4CB010E941D088C01C801FC
:1012A000CDB7DEB7E0E10C94D607FC01E60FF71FDF
:1012B0009C0122503109E217F30708F49DC0D901BF
:1012C000CD91DC911197C617D70798F0C530D1059D
:1012D00030F3CE0104978617970708F3C61BD70B88
:1012E0002297C193D1936D937C93CF010E94B9084B
:1012F000D6CF5B01AC1ABD0A4C018C0E9D1EA0918D
:101300008702B0918802512C412CF12CE12C1097CE
:1013100031F580918502909186028815990509F032
:101320005CC04616570608F058C0809100019091A5
:101330000101009741F48DB79EB74091040150918F
:101340000501841B950BE817F90708F055C0F093C9
:101350008602E0938502F90171836083A0CF8D91AD
:101360009C91119712966C90129713967C901397FC
:10137000A815B90559F56C0142E0C40ED11CCA1478
:10138000DB0420F1AC014A195B09DA0112961597CA
:1013900080F06282738251834083D9016D937C9384
:1013A000E114F10471F0D7011396FC93EE931297B8
:1013B00076CF22968C0F9D1FF90191838083F301D4
:1013C000EFCFF0938802E093870269CF4816590661
:1013D00008F42C017D01D3019ACFCB010E941D0896
:1013E0007C01009749F0AE01B8010E94FF09C801D5
:1013F0000E94B908870153CF10E000E050CFFB01F5
:10140000DC0102C001900D9241505040D8F7089580
:10141000FB01DC0101900D920020E1F7089510E03E
:10142000CDE5D0E004C0FE010E9417082196CE351C
:10143000D107C9F7F894FFCF0000890280000000AF
:101440000000A101A800EE00EE015F01FD005101C6
:10145000C0F9A4B0999283F880980D0A0045727281
:101460006F723A20706F64616E6F206E617374C426
:101470009970756AC48563C485696C6F0020726F4A
:10148000647A69656C65C58420646C61207A6E61DC
:101490006B75202700272C206369C4856720706F37
:1014A00077696E69656E20706F7369616461C48766
:1014B00020332E004572726F723A206C69637A6233
:1014C0006120002077207AC582796D207A616B7265
:1014D0006573696520286E616C65C5BC65C487202D
:1014E0006D6120646F207A616B72657375206F6423
:0A14F000203020646F2039392900F4
:107E0000112484B714BE81FFF0D085E080938100F7
:107E100082E08093C00088E18093C10086E0809377
:107E2000C20080E18093C4008EE0C9D0259A86E02C
:107E300020E33CEF91E0309385002093840096BBD3
:107E4000B09BFECF1D9AA8958150A9F7CC24DD24C4
:107E500088248394B5E0AB2EA1E19A2EF3E0BF2EE7
:107E6000A2D0813461F49FD0082FAFD0023811F036
:107E7000013811F484E001C083E08DD089C08234E0
:107E800011F484E103C0853419F485E0A6D080C0E4
:107E9000853579F488D0E82EFF2485D0082F10E0AE
:107EA000102F00270E291F29000F111F8ED06801E7
:107EB0006FC0863521F484E090D080E0DECF843638
:107EC00009F040C070D06FD0082F6DD080E0C81688
:107ED00080E7D80618F4F601B7BEE895C0E0D1E017
:107EE00062D089930C17E1F7F0E0CF16F0E7DF06D8
:107EF00018F0F601B7BEE89568D007B600FCFDCFD4
:107F0000A601A0E0B1E02C9130E011968C91119780
:107F100090E0982F8827822B932B1296FA010C0160
:107F200087BEE89511244E5F5F4FF1E0A038BF0790
:107F300051F7F601A7BEE89507B600FCFDCF97BE46
:107F4000E89526C08437B1F42ED02DD0F82E2BD052
:107F50003CD0F601EF2C8F010F5F1F4F84911BD097
:107F6000EA94F801C1F70894C11CD11CFA94CF0C13
:107F7000D11C0EC0853739F428D08EE10CD085E9AC
:107F80000AD08FE07ACF813511F488E018D01DD067
:107F900080E101D065CF982F8091C00085FFFCCF94
:107FA0009093C60008958091C00087FFFCCF809118
:107FB000C00084FD01C0A8958091C6000895E0E648
:107FC000F0E098E1908380830895EDDF803219F02E
:107FD00088E0F5DFFFCF84E1DECF1F93182FE3DFCA
:107FE0001150E9F7F2DF1F91089580E0E8DFEE27F6
:047FF000FF270994CA
:027FFE00040479
:00000001FF
